{
    "_format": "hh-sol-artifact-1",
    "contractName": "IntegraMessageV4_5",
    "sourceName": "contracts/IntegraMessageV4_5.sol",
    "abi": [
        {
            "inputs": [],
            "stateMutability": "nonpayable",
            "type": "constructor"
        },
        {
            "inputs": [
                {
                    "internalType": "address",
                    "name": "target",
                    "type": "address"
                }
            ],
            "name": "AddressEmptyCode",
            "type": "error"
        },
        {
            "inputs": [
                {
                    "internalType": "address",
                    "name": "implementation",
                    "type": "address"
                }
            ],
            "name": "ERC1967InvalidImplementation",
            "type": "error"
        },
        {
            "inputs": [],
            "name": "ERC1967NonPayable",
            "type": "error"
        },
        {
            "inputs": [],
            "name": "FailedCall",
            "type": "error"
        },
        {
            "inputs": [],
            "name": "InvalidCallerAddress",
            "type": "error"
        },
        {
            "inputs": [],
            "name": "InvalidInitialization",
            "type": "error"
        },
        {
            "inputs": [],
            "name": "InvalidProof",
            "type": "error"
        },
        {
            "inputs": [],
            "name": "MessageCannotBeEmpty",
            "type": "error"
        },
        {
            "inputs": [],
            "name": "NotInitializing",
            "type": "error"
        },
        {
            "inputs": [
                {
                    "internalType": "address",
                    "name": "owner",
                    "type": "address"
                }
            ],
            "name": "OwnableInvalidOwner",
            "type": "error"
        },
        {
            "inputs": [
                {
                    "internalType": "address",
                    "name": "account",
                    "type": "address"
                }
            ],
            "name": "OwnableUnauthorizedAccount",
            "type": "error"
        },
        {
            "inputs": [],
            "name": "ReentrancyGuardReentrantCall",
            "type": "error"
        },
        {
            "inputs": [],
            "name": "UUPSUnauthorizedCallContext",
            "type": "error"
        },
        {
            "inputs": [
                {
                    "internalType": "bytes32",
                    "name": "slot",
                    "type": "bytes32"
                }
            ],
            "name": "UUPSUnsupportedProxiableUUID",
            "type": "error"
        },
        {
            "inputs": [
                {
                    "internalType": "string",
                    "name": "circuitId",
                    "type": "string"
                }
            ],
            "name": "VerifierNotFound",
            "type": "error"
        },
        {
            "anonymous": false,
            "inputs": [
                {
                    "indexed": true,
                    "internalType": "address",
                    "name": "oldExecutor",
                    "type": "address"
                },
                {
                    "indexed": true,
                    "internalType": "address",
                    "name": "newExecutor",
                    "type": "address"
                }
            ],
            "name": "ExecutorUpdated",
            "type": "event"
        },
        {
            "anonymous": false,
            "inputs": [
                {
                    "indexed": false,
                    "internalType": "uint64",
                    "name": "version",
                    "type": "uint64"
                }
            ],
            "name": "Initialized",
            "type": "event"
        },
        {
            "anonymous": false,
            "inputs": [
                {
                    "indexed": true,
                    "internalType": "bytes32",
                    "name": "integraHash",
                    "type": "bytes32"
                },
                {
                    "indexed": true,
                    "internalType": "bytes32",
                    "name": "processHash",
                    "type": "bytes32"
                },
                {
                    "indexed": false,
                    "internalType": "uint256",
                    "name": "tokenId",
                    "type": "uint256"
                },
                {
                    "indexed": false,
                    "internalType": "string",
                    "name": "eventRef",
                    "type": "string"
                },
                {
                    "indexed": false,
                    "internalType": "string",
                    "name": "message",
                    "type": "string"
                },
                {
                    "indexed": false,
                    "internalType": "uint256",
                    "name": "timestamp",
                    "type": "uint256"
                },
                {
                    "indexed": false,
                    "internalType": "address",
                    "name": "registrant",
                    "type": "address"
                }
            ],
            "name": "MessageRegistered",
            "type": "event"
        },
        {
            "anonymous": false,
            "inputs": [
                {
                    "indexed": true,
                    "internalType": "address",
                    "name": "previousOwner",
                    "type": "address"
                },
                {
                    "indexed": true,
                    "internalType": "address",
                    "name": "newOwner",
                    "type": "address"
                }
            ],
            "name": "OwnershipTransferred",
            "type": "event"
        },
        {
            "anonymous": false,
            "inputs": [
                {
                    "indexed": true,
                    "internalType": "address",
                    "name": "implementation",
                    "type": "address"
                }
            ],
            "name": "Upgraded",
            "type": "event"
        },
        {
            "inputs": [],
            "name": "UPGRADE_INTERFACE_VERSION",
            "outputs": [
                {
                    "internalType": "string",
                    "name": "",
                    "type": "string"
                }
            ],
            "stateMutability": "view",
            "type": "function"
        },
        {
            "inputs": [],
            "name": "executor",
            "outputs": [
                {
                    "internalType": "address",
                    "name": "",
                    "type": "address"
                }
            ],
            "stateMutability": "view",
            "type": "function"
        },
        {
            "inputs": [
                {
                    "internalType": "address",
                    "name": "_executor",
                    "type": "address"
                },
                {
                    "internalType": "address",
                    "name": "_verifierRegistry",
                    "type": "address"
                }
            ],
            "name": "initialize",
            "outputs": [],
            "stateMutability": "nonpayable",
            "type": "function"
        },
        {
            "inputs": [],
            "name": "owner",
            "outputs": [
                {
                    "internalType": "address",
                    "name": "",
                    "type": "address"
                }
            ],
            "stateMutability": "view",
            "type": "function"
        },
        {
            "inputs": [],
            "name": "proxiableUUID",
            "outputs": [
                {
                    "internalType": "bytes32",
                    "name": "",
                    "type": "bytes32"
                }
            ],
            "stateMutability": "view",
            "type": "function"
        },
        {
            "inputs": [
                {
                    "internalType": "address",
                    "name": "_caller",
                    "type": "address"
                },
                {
                    "internalType": "bytes32",
                    "name": "_integraHash",
                    "type": "bytes32"
                },
                {
                    "internalType": "uint256",
                    "name": "_tokenId",
                    "type": "uint256"
                },
                {
                    "internalType": "bytes32",
                    "name": "_processHash",
                    "type": "bytes32"
                },
                {
                    "internalType": "uint256[2]",
                    "name": "_proofA",
                    "type": "uint256[2]"
                },
                {
                    "internalType": "uint256[2][2]",
                    "name": "_proofB",
                    "type": "uint256[2][2]"
                },
                {
                    "internalType": "uint256[2]",
                    "name": "_proofC",
                    "type": "uint256[2]"
                },
                {
                    "internalType": "string",
                    "name": "_eventRef",
                    "type": "string"
                },
                {
                    "internalType": "string",
                    "name": "_message",
                    "type": "string"
                }
            ],
            "name": "registerMessage",
            "outputs": [],
            "stateMutability": "nonpayable",
            "type": "function"
        },
        {
            "inputs": [],
            "name": "renounceOwnership",
            "outputs": [],
            "stateMutability": "nonpayable",
            "type": "function"
        },
        {
            "inputs": [
                {
                    "internalType": "address",
                    "name": "newOwner",
                    "type": "address"
                }
            ],
            "name": "transferOwnership",
            "outputs": [],
            "stateMutability": "nonpayable",
            "type": "function"
        },
        {
            "inputs": [
                {
                    "internalType": "address",
                    "name": "newExecutor",
                    "type": "address"
                }
            ],
            "name": "updateExecutor",
            "outputs": [],
            "stateMutability": "nonpayable",
            "type": "function"
        },
        {
            "inputs": [
                {
                    "internalType": "address",
                    "name": "newImplementation",
                    "type": "address"
                },
                {
                    "internalType": "bytes",
                    "name": "data",
                    "type": "bytes"
                }
            ],
            "name": "upgradeToAndCall",
            "outputs": [],
            "stateMutability": "payable",
            "type": "function"
        },
        {
            "inputs": [],
            "name": "verifierRegistry",
            "outputs": [
                {
                    "internalType": "address",
                    "name": "",
                    "type": "address"
                }
            ],
            "stateMutability": "view",
            "type": "function"
        }
    ],
    "bytecode": "0x60a080604052346100cc57306080527ff0c57e16840df040f15088dc2f81fe391c3923bec73e23a9662efc9c229c6a009081549060ff8260401c166100bd57506001600160401b036002600160401b031982821601610078575b604051610e2d90816100d282396080518181816102cb01526103b10152f35b6001600160401b031990911681179091556040519081527fc7f505b2f371ae2175ee4913f4499e1f2633a7b5936321eed1cdaeb6115181d290602090a1388080610059565b63f92ee8a960e01b8152600490fd5b600080fdfe608080604052600436101561001357600080fd5b60003560e01c9081630f28a27f1461077057508063485cc955146105855780634f1ef2861461033557806352d1902d146102b8578063715018a61461024e57806374936c16146101d457806386a23a6b146101ab5780638da5cb5b14610175578063ad3cb1cc146100f1578063c34c08e5146100c85763f2fde38b1461009857600080fd5b346100c35760203660031901126100c3576100c16100b4610b68565b6100bc610cda565b610c66565b005b600080fd5b346100c35760003660031901126100c3576000546040516001600160a01b039091168152602090f35b346100c35760003660031901126100c35760405161010e81610bac565b60058152602090640352e302e360dc1b60208201526040518092602082528251908160208401526000935b82851061015c575050604092506000838284010152601f80199101168101030190f35b8481018201518686016040015293810193859350610139565b346100c35760003660031901126100c357600080516020610db8833981519152546040516001600160a01b039091168152602090f35b346100c35760003660031901126100c3576001546040516001600160a01b039091168152602090f35b346100c35760203660031901126100c3576101ed610b68565b6101f5610cda565b6001600160a01b039081169061020c821515610c27565b600054826bffffffffffffffffffffffff60a01b821617600055167f0ef3c7eb9dbcf33ddf032f4cce366a07eda85eed03e3172e4a90c4cc16d57886600080a3005b346100c35760003660031901126100c357610267610cda565b600080516020610db883398151915280546001600160a01b031981169091556000906001600160a01b03167f8be0079c531659141344cd1fd0a4f28419497f9722a3daafe3b4186f6b6457e08280a3005b346100c35760003660031901126100c3577f00000000000000000000000000000000000000000000000000000000000000006001600160a01b031630036103235760206040517f360894a13ba1a3210667c828492db98dca3e2076cc3735a920a3ca505d382bbc8152f35b60405163703e46dd60e11b8152600490fd5b60403660031901126100c357610349610b68565b602490813567ffffffffffffffff81116100c357366023820112156100c357806004013561037681610bea565b926103846040519485610bc8565b81845260209182850193368783830101116100c35781600092888693018737860101526001600160a01b037f00000000000000000000000000000000000000000000000000000000000000008116308114908115610557575b50610323576103ea610cda565b8116936040516352d1902d60e01b81528381600481895afa60009181610528575b5061042857604051634c9c8ce360e01b8152600481018790528790fd5b8590877f360894a13ba1a3210667c828492db98dca3e2076cc3735a920a3ca505d382bbc918281036105135750843b156104fd575080546001600160a01b03191682179055604051907fbc7cd75a20ee27fd9adebab32041f755214dbc6bffa90cc0225b39da2e5c2d3b600080a28151156104e2575060006100c19481925190845af4903d156104d9573d6104bc81610bea565b906104ca6040519283610bc8565b8152600081943d92013e610d54565b60609250610d54565b9350505050346104ee57005b63b398979f60e01b8152600490fd5b604051634c9c8ce360e01b815260048101849052fd5b60405190632a87526960e21b82526004820152fd5b9091508481813d8311610550575b6105408183610bc8565b810103126100c35751908861040b565b503d610536565b9050817f360894a13ba1a3210667c828492db98dca3e2076cc3735a920a3ca505d382bbc54161415876103dd565b346100c35760403660031901126100c35761059e610b68565b6001600160a01b039060243582811691908290036100c3577ff0c57e16840df040f15088dc2f81fe391c3923bec73e23a9662efc9c229c6a009182549360ff8560401c16159267ffffffffffffffff861695861580610769575b6001809814908161075f575b159081610756575b506107445767ffffffffffffffff1981168717865584610725575b50610630610d13565b610638610d13565b610640610d13565b61064933610c66565b610651610d13565b610659610d13565b85600080516020610dd88339815191525516610676811515610c27565b81156106e0576bffffffffffffffffffffffff60a01b908160005416176000558454161783556106a257005b805468ff0000000000000000191690556040519081527fc7f505b2f371ae2175ee4913f4499e1f2633a7b5936321eed1cdaeb6115181d290602090a1005b60405162461bcd60e51b815260206004820152601960248201527f496e76616c6964207665726966696572207265676973747279000000000000006044820152606490fd5b68ffffffffffffffffff19166801000000000000000117855586610627565b60405163f92ee8a960e01b8152600490fd5b9050158861060c565b303b159150610604565b50846105f8565b346100c3576101c03660031901126100c35761078a610b68565b3660c4116100c35736610144116100c3576101843681116100c3573567ffffffffffffffff81116100c3576107c3903690600401610b7e565b926101a43567ffffffffffffffff81116100c3576107e5903690600401610b7e565b9390916002600080516020610dd88339815191525414610b5957506002600080516020610dd8833981519152556000546001600160a01b03163303610b24578315610b1257600154604051630f7a555160e21b8152602060048201819052600d60248301526c4261736963416363657373563160981b60448301529091829060649082906001600160a01b03165afa908115610a4257600091610ad0575b506001600160a01b03811615610a9a57604080516108a081610bac565b3690376040519081604081011067ffffffffffffffff604084011117610a8457604082810181526064356fffffffffffffffffffffffffffffffff8116845260801c60208401528051637ae4eb4f60e11b81529283916084600484013760c46000604484015b60028210610a6857505050604061014460c4840137600061010483015b60028210610a4e575060209361014492508391506001600160a01b03165afa908115610a4257600091610a07575b50156109f5576001600160a01b03169283156109e3576109886109969360405196604435885260a0602089015260a0880191610c06565b918583036040870152610c06565b9042606084015260808301527fc39542500b17436fda6a6b22da11b563dc7bfa84c5eebda4b95270364099fdc26064359280602435930390a36001600080516020610dd883398151915255005b604051630c7e21ef60e41b8152600490fd5b6040516309bde33960e01b8152600490fd5b90506020813d602011610a3a575b81610a2260209383610bc8565b810103126100c3575180151581036100c35786610951565b3d9150610a15565b6040513d6000823e3d90fd5b829350602080916001939451815201930191018492610923565b8293945060408181600194958194370193019101859392610906565b634e487b7160e01b600052604160045260246000fd5b604051635866c86960e01b815260206004820152600d60248201526c4261736963416363657373563160981b6044820152606490fd5b90506020813d602011610b0a575b81610aeb60209383610bc8565b810103126100c357516001600160a01b03811681036100c35786610883565b3d9150610ade565b60405163c1287c4360e01b8152600490fd5b60405162461bcd60e51b815260206004820152600d60248201526c27b7363c9032bc32b1baba37b960991b6044820152606490fd5b633ee5aeb560e01b8152600490fd5b600435906001600160a01b03821682036100c357565b9181601f840112156100c35782359167ffffffffffffffff83116100c357602083818601950101116100c357565b6040810190811067ffffffffffffffff821117610a8457604052565b90601f8019910116810190811067ffffffffffffffff821117610a8457604052565b67ffffffffffffffff8111610a8457601f01601f191660200190565b908060209392818452848401376000828201840152601f01601f1916010190565b15610c2e57565b60405162461bcd60e51b815260206004820152601060248201526f24b73b30b634b21032bc32b1baba37b960811b6044820152606490fd5b6001600160a01b03908116908115610cc157600080516020610db883398151915280546001600160a01b031981168417909155167f8be0079c531659141344cd1fd0a4f28419497f9722a3daafe3b4186f6b6457e0600080a3565b604051631e4fbdf760e01b815260006004820152602490fd5b600080516020610db8833981519152546001600160a01b03163303610cfb57565b60405163118cdaa760e01b8152336004820152602490fd5b60ff7ff0c57e16840df040f15088dc2f81fe391c3923bec73e23a9662efc9c229c6a005460401c1615610d4257565b604051631afcd79f60e31b8152600490fd5b90610d7b5750805115610d6957805190602001fd5b60405163d6bda27560e01b8152600490fd5b81511580610dae575b610d8c575090565b604051639996b31560e01b81526001600160a01b039091166004820152602490fd5b50803b15610d8456fe9016d09d72d40fdae2fd8ceac6b6234c7706214fd39c1cd1e609a0528c1993009b779b17422d0df92223018b32b4d1fa46e071723d6817e2486d003becc55f00a26469706673582212206099a1b8946e1ced2f46677ef5354b51990fbf1e52eac33323f476778c001cef64736f6c63430008180033",
    "linkReferences": {},
    "deployedLinkReferences": {}
}