{
    "_format": "hh-sol-artifact-1",
    "contractName": "IntegraPaymentV4_5",
    "sourceName": "contracts/IntegraPaymentV4_5.sol",
    "abi": [
        {
            "inputs": [],
            "stateMutability": "nonpayable",
            "type": "constructor"
        },
        {
            "inputs": [
                {
                    "internalType": "address",
                    "name": "target",
                    "type": "address"
                }
            ],
            "name": "AddressEmptyCode",
            "type": "error"
        },
        {
            "inputs": [
                {
                    "internalType": "uint256",
                    "name": "provided",
                    "type": "uint256"
                },
                {
                    "internalType": "uint256",
                    "name": "expected",
                    "type": "uint256"
                }
            ],
            "name": "AmountMustMatchRequest",
            "type": "error"
        },
        {
            "inputs": [
                {
                    "internalType": "address",
                    "name": "provided",
                    "type": "address"
                },
                {
                    "internalType": "address",
                    "name": "expected",
                    "type": "address"
                }
            ],
            "name": "CurrencyMustMatchRequest",
            "type": "error"
        },
        {
            "inputs": [
                {
                    "internalType": "address",
                    "name": "implementation",
                    "type": "address"
                }
            ],
            "name": "ERC1967InvalidImplementation",
            "type": "error"
        },
        {
            "inputs": [],
            "name": "ERC1967NonPayable",
            "type": "error"
        },
        {
            "inputs": [],
            "name": "FailedCall",
            "type": "error"
        },
        {
            "inputs": [],
            "name": "InvalidCallerAddress",
            "type": "error"
        },
        {
            "inputs": [],
            "name": "InvalidCurrencyAddress",
            "type": "error"
        },
        {
            "inputs": [],
            "name": "InvalidInitialization",
            "type": "error"
        },
        {
            "inputs": [],
            "name": "InvalidProcessHash",
            "type": "error"
        },
        {
            "inputs": [],
            "name": "InvalidProof",
            "type": "error"
        },
        {
            "inputs": [],
            "name": "NotInitializing",
            "type": "error"
        },
        {
            "inputs": [
                {
                    "internalType": "address",
                    "name": "owner",
                    "type": "address"
                }
            ],
            "name": "OwnableInvalidOwner",
            "type": "error"
        },
        {
            "inputs": [
                {
                    "internalType": "address",
                    "name": "account",
                    "type": "address"
                }
            ],
            "name": "OwnableUnauthorizedAccount",
            "type": "error"
        },
        {
            "inputs": [],
            "name": "PaymentTransferFailed",
            "type": "error"
        },
        {
            "inputs": [
                {
                    "internalType": "address",
                    "name": "recipient",
                    "type": "address"
                },
                {
                    "internalType": "uint256",
                    "name": "tokenId",
                    "type": "uint256"
                }
            ],
            "name": "RecipientMustHoldToken",
            "type": "error"
        },
        {
            "inputs": [
                {
                    "internalType": "uint256",
                    "name": "tokenId",
                    "type": "uint256"
                }
            ],
            "name": "RecipientTokenNotIssued",
            "type": "error"
        },
        {
            "inputs": [],
            "name": "ReentrancyGuardReentrantCall",
            "type": "error"
        },
        {
            "inputs": [
                {
                    "internalType": "enum IntegraSignalV4_5.PaymentState",
                    "name": "currentState",
                    "type": "uint8"
                }
            ],
            "name": "RequestNotInRequestedState",
            "type": "error"
        },
        {
            "inputs": [
                {
                    "internalType": "address",
                    "name": "sender",
                    "type": "address"
                },
                {
                    "internalType": "address",
                    "name": "expectedRecipient",
                    "type": "address"
                }
            ],
            "name": "SenderMustBeRecipientOfRequest",
            "type": "error"
        },
        {
            "inputs": [
                {
                    "internalType": "address",
                    "name": "sender",
                    "type": "address"
                },
                {
                    "internalType": "uint256",
                    "name": "tokenId",
                    "type": "uint256"
                }
            ],
            "name": "SenderMustHoldToken",
            "type": "error"
        },
        {
            "inputs": [],
            "name": "TokenIdsMustMatchRequest",
            "type": "error"
        },
        {
            "inputs": [],
            "name": "UUPSUnauthorizedCallContext",
            "type": "error"
        },
        {
            "inputs": [
                {
                    "internalType": "bytes32",
                    "name": "slot",
                    "type": "bytes32"
                }
            ],
            "name": "UUPSUnsupportedProxiableUUID",
            "type": "error"
        },
        {
            "inputs": [
                {
                    "internalType": "string",
                    "name": "circuitId",
                    "type": "string"
                }
            ],
            "name": "VerifierNotFound",
            "type": "error"
        },
        {
            "anonymous": false,
            "inputs": [
                {
                    "indexed": true,
                    "internalType": "address",
                    "name": "oldExecutor",
                    "type": "address"
                },
                {
                    "indexed": true,
                    "internalType": "address",
                    "name": "newExecutor",
                    "type": "address"
                }
            ],
            "name": "ExecutorUpdated",
            "type": "event"
        },
        {
            "anonymous": false,
            "inputs": [
                {
                    "indexed": false,
                    "internalType": "uint64",
                    "name": "version",
                    "type": "uint64"
                }
            ],
            "name": "Initialized",
            "type": "event"
        },
        {
            "anonymous": false,
            "inputs": [
                {
                    "indexed": true,
                    "internalType": "address",
                    "name": "previousOwner",
                    "type": "address"
                },
                {
                    "indexed": true,
                    "internalType": "address",
                    "name": "newOwner",
                    "type": "address"
                }
            ],
            "name": "OwnershipTransferred",
            "type": "event"
        },
        {
            "anonymous": false,
            "inputs": [
                {
                    "indexed": true,
                    "internalType": "bytes32",
                    "name": "integraHash",
                    "type": "bytes32"
                },
                {
                    "indexed": true,
                    "internalType": "uint256",
                    "name": "senderTokenId",
                    "type": "uint256"
                },
                {
                    "indexed": true,
                    "internalType": "uint256",
                    "name": "recipientTokenId",
                    "type": "uint256"
                },
                {
                    "indexed": false,
                    "internalType": "address",
                    "name": "sender",
                    "type": "address"
                },
                {
                    "indexed": false,
                    "internalType": "address",
                    "name": "recipient",
                    "type": "address"
                },
                {
                    "indexed": false,
                    "internalType": "bytes32",
                    "name": "processHash",
                    "type": "bytes32"
                },
                {
                    "indexed": false,
                    "internalType": "address",
                    "name": "currency",
                    "type": "address"
                },
                {
                    "indexed": false,
                    "internalType": "uint256",
                    "name": "amount",
                    "type": "uint256"
                },
                {
                    "indexed": false,
                    "internalType": "uint256",
                    "name": "timestamp",
                    "type": "uint256"
                }
            ],
            "name": "PaymentSent",
            "type": "event"
        },
        {
            "anonymous": false,
            "inputs": [
                {
                    "indexed": true,
                    "internalType": "address",
                    "name": "implementation",
                    "type": "address"
                }
            ],
            "name": "Upgraded",
            "type": "event"
        },
        {
            "inputs": [],
            "name": "UPGRADE_INTERFACE_VERSION",
            "outputs": [
                {
                    "internalType": "string",
                    "name": "",
                    "type": "string"
                }
            ],
            "stateMutability": "view",
            "type": "function"
        },
        {
            "inputs": [],
            "name": "executor",
            "outputs": [
                {
                    "internalType": "address",
                    "name": "",
                    "type": "address"
                }
            ],
            "stateMutability": "view",
            "type": "function"
        },
        {
            "inputs": [
                {
                    "internalType": "address",
                    "name": "_executor",
                    "type": "address"
                },
                {
                    "internalType": "address",
                    "name": "_ledger",
                    "type": "address"
                },
                {
                    "internalType": "address",
                    "name": "_signal",
                    "type": "address"
                },
                {
                    "internalType": "address",
                    "name": "_verifierRegistry",
                    "type": "address"
                }
            ],
            "name": "initialize",
            "outputs": [],
            "stateMutability": "nonpayable",
            "type": "function"
        },
        {
            "inputs": [],
            "name": "ledger",
            "outputs": [
                {
                    "internalType": "contract IntegraInterfaceV4_5",
                    "name": "",
                    "type": "address"
                }
            ],
            "stateMutability": "view",
            "type": "function"
        },
        {
            "inputs": [],
            "name": "owner",
            "outputs": [
                {
                    "internalType": "address",
                    "name": "",
                    "type": "address"
                }
            ],
            "stateMutability": "view",
            "type": "function"
        },
        {
            "inputs": [],
            "name": "proxiableUUID",
            "outputs": [
                {
                    "internalType": "bytes32",
                    "name": "",
                    "type": "bytes32"
                }
            ],
            "stateMutability": "view",
            "type": "function"
        },
        {
            "inputs": [],
            "name": "renounceOwnership",
            "outputs": [],
            "stateMutability": "nonpayable",
            "type": "function"
        },
        {
            "inputs": [
                {
                    "internalType": "address",
                    "name": "_caller",
                    "type": "address"
                },
                {
                    "internalType": "bytes32",
                    "name": "_integraHash",
                    "type": "bytes32"
                },
                {
                    "internalType": "uint256",
                    "name": "_senderTokenId",
                    "type": "uint256"
                },
                {
                    "internalType": "uint256",
                    "name": "_recipientTokenId",
                    "type": "uint256"
                },
                {
                    "internalType": "bytes32",
                    "name": "_processHash",
                    "type": "bytes32"
                },
                {
                    "internalType": "uint256[2]",
                    "name": "_proofA",
                    "type": "uint256[2]"
                },
                {
                    "internalType": "uint256[2][2]",
                    "name": "_proofB",
                    "type": "uint256[2][2]"
                },
                {
                    "internalType": "uint256[2]",
                    "name": "_proofC",
                    "type": "uint256[2]"
                },
                {
                    "internalType": "address",
                    "name": "_currency",
                    "type": "address"
                },
                {
                    "internalType": "uint256",
                    "name": "_amount",
                    "type": "uint256"
                }
            ],
            "name": "sendPayment",
            "outputs": [],
            "stateMutability": "nonpayable",
            "type": "function"
        },
        {
            "inputs": [],
            "name": "signalContract",
            "outputs": [
                {
                    "internalType": "contract IntegraSignalV4_5",
                    "name": "",
                    "type": "address"
                }
            ],
            "stateMutability": "view",
            "type": "function"
        },
        {
            "inputs": [
                {
                    "internalType": "address",
                    "name": "newOwner",
                    "type": "address"
                }
            ],
            "name": "transferOwnership",
            "outputs": [],
            "stateMutability": "nonpayable",
            "type": "function"
        },
        {
            "inputs": [
                {
                    "internalType": "address",
                    "name": "newExecutor",
                    "type": "address"
                }
            ],
            "name": "updateExecutor",
            "outputs": [],
            "stateMutability": "nonpayable",
            "type": "function"
        },
        {
            "inputs": [
                {
                    "internalType": "address",
                    "name": "_newLedger",
                    "type": "address"
                }
            ],
            "name": "updateLedgerContract",
            "outputs": [],
            "stateMutability": "nonpayable",
            "type": "function"
        },
        {
            "inputs": [
                {
                    "internalType": "address",
                    "name": "_newSignal",
                    "type": "address"
                }
            ],
            "name": "updateSignalContract",
            "outputs": [],
            "stateMutability": "nonpayable",
            "type": "function"
        },
        {
            "inputs": [
                {
                    "internalType": "address",
                    "name": "newImplementation",
                    "type": "address"
                },
                {
                    "internalType": "bytes",
                    "name": "data",
                    "type": "bytes"
                }
            ],
            "name": "upgradeToAndCall",
            "outputs": [],
            "stateMutability": "payable",
            "type": "function"
        },
        {
            "inputs": [],
            "name": "verifierRegistry",
            "outputs": [
                {
                    "internalType": "address",
                    "name": "",
                    "type": "address"
                }
            ],
            "stateMutability": "view",
            "type": "function"
        }
    ],
    "bytecode": "0x60a080604052346100cc57306080527ff0c57e16840df040f15088dc2f81fe391c3923bec73e23a9662efc9c229c6a009081549060ff8260401c166100bd57506001600160401b036002600160401b031982821601610078575b6040516114fe90816100d2823960805181818161063a01526107200152f35b6001600160401b031990911681179091556040519081527fc7f505b2f371ae2175ee4913f4499e1f2633a7b5936321eed1cdaeb6115181d290602090a1388080610059565b63f92ee8a960e01b8152600490fd5b600080fdfe608080604052600436101561001357600080fd5b60003560e01c9081632d339e2b146108f4575080634f1ef286146106a457806352d1902d1461062757806356397c35146105fe578063715018a61461059457806374936c161461051a5780638090cec3146104d757806386a23a6b146104ae5780638da5cb5b146104785780639d3617e614610435578063ad3cb1cc146103d8578063c34c08e5146103af578063e4bbaa3f14610386578063f2fde38b1461035b5763f8c8765e146100c457600080fd5b34610356576080366003190112610356576100dd6111de565b6001600160a01b0390602435828116919082900361035657604435918383168093036103565760643590848216809203610356577ff0c57e16840df040f15088dc2f81fe391c3923bec73e23a9662efc9c229c6a009384549560ff8760401c16159467ffffffffffffffff88169788158061034f575b6001809a149081610345575b15908161033c575b5061032a5767ffffffffffffffff198116891788558661030b575b5061018b6113e4565b6101936113e4565b61019b6113e4565b6101a433611337565b6101ac6113e4565b6101b46113e4565b876000805160206114a98339815191525516916101d28315156112f8565b80156102d557811561029f57831561025a576bffffffffffffffffffffffff60a01b9283600254161760025582600054161760005581865416178555600354161760035561021c57005b805468ff0000000000000000191690556040519081527fc7f505b2f371ae2175ee4913f4499e1f2633a7b5936321eed1cdaeb6115181d290602090a1005b60405162461bcd60e51b815260206004820152601960248201527f496e76616c6964207665726966696572207265676973747279000000000000006044820152606490fd5b60405162461bcd60e51b815260206004820152600e60248201526d125b9d985b1a59081cda59db985b60921b6044820152606490fd5b60405162461bcd60e51b815260206004820152600e60248201526d24b73b30b634b2103632b233b2b960911b6044820152606490fd5b68ffffffffffffffffff19166801000000000000000117875538610182565b60405163f92ee8a960e01b8152600490fd5b90501538610167565b303b15915061015f565b5086610153565b600080fd5b34610356576020366003190112610356576103846103776111de565b61037f6113ab565b611337565b005b34610356576000366003190112610356576001546040516001600160a01b039091168152602090f35b34610356576000366003190112610356576002546040516001600160a01b039091168152602090f35b3461035657600036600319011261035657610427604080516103f9816111f4565b6005815260208101640352e302e360dc1b815282519384926020845251809281602086015285850190611264565b601f01601f19168101030190f35b346103565760203660031901126103565761044e6111de565b6104566113ab565b600080546001600160a01b0319166001600160a01b0392909216919091179055005b3461035657600036600319011261035657600080516020611489833981519152546040516001600160a01b039091168152602090f35b34610356576000366003190112610356576003546040516001600160a01b039091168152602090f35b34610356576020366003190112610356576104f06111de565b6104f86113ab565b600180546001600160a01b0319166001600160a01b0392909216919091179055005b34610356576020366003190112610356576105336111de565b61053b6113ab565b6001600160a01b03908116906105528215156112f8565b600254826bffffffffffffffffffffffff60a01b821617600255167f0ef3c7eb9dbcf33ddf032f4cce366a07eda85eed03e3172e4a90c4cc16d57886600080a3005b34610356576000366003190112610356576105ad6113ab565b60008051602061148983398151915280546001600160a01b031981169091556000906001600160a01b03167f8be0079c531659141344cd1fd0a4f28419497f9722a3daafe3b4186f6b6457e08280a3005b34610356576000366003190112610356576000546040516001600160a01b039091168152602090f35b34610356576000366003190112610356577f00000000000000000000000000000000000000000000000000000000000000006001600160a01b031630036106925760206040517f360894a13ba1a3210667c828492db98dca3e2076cc3735a920a3ca505d382bbc8152f35b60405163703e46dd60e11b8152600490fd5b6040366003190112610356576106b86111de565b602490813567ffffffffffffffff811161035657366023820112156103565780600401356106e581611248565b926106f36040519485611226565b81845260209182850193368783830101116103565781600092888693018737860101526001600160a01b037f000000000000000000000000000000000000000000000000000000000000000081163081149081156108c6575b50610692576107596113ab565b8116936040516352d1902d60e01b81528381600481895afa60009181610897575b5061079757604051634c9c8ce360e01b8152600481018790528790fd5b8590877f360894a13ba1a3210667c828492db98dca3e2076cc3735a920a3ca505d382bbc918281036108825750843b1561086c575080546001600160a01b03191682179055604051907fbc7cd75a20ee27fd9adebab32041f755214dbc6bffa90cc0225b39da2e5c2d3b600080a2815115610851575060006103849481925190845af4903d15610848573d61082b81611248565b906108396040519283611226565b8152600081943d92013e611425565b60609250611425565b93505050503461085d57005b63b398979f60e01b8152600490fd5b604051634c9c8ce360e01b815260048101849052fd5b60405190632a87526960e21b82526004820152fd5b9091508481813d83116108bf575b6108af8183611226565b810103126103565751908861077a565b503d6108a5565b9050817f360894a13ba1a3210667c828492db98dca3e2076cc3735a920a3ca505d382bbc541614158761074c565b34610356576101e03660031901126103565761090e6111de565b906024903660e411610356573661016411610356576101a4903682116103565781356001600160a01b03811690036103565760026000805160206114a983398151915254146111cf575060026000805160206114a9833981519152819055546001600160a01b0316330361119b57600354604051630f7a555160e21b8152602060048201819052600d60248301526c4261736963416363657373563160981b60448301529091829060649082906001600160a01b03165afa908115610d5d57600091611161575b506001600160a01b0381161561112b57604080516109f2816111f4565b369037604051604081019167ffffffffffffffff92828110848211176111165760409081526084356fffffffffffffffffffffffffffffffff8116845260801c60208401528051637ae4eb4f60e11b815292839160a4600484013760e46000604484015b600282106110fa57505050604061016460c4840137600061010483015b600282106110e0575060209361014492508391506001600160a01b03165afa908115610d5d576000916110c1575b50156110af57600154604051634574b36160e01b81526084356004820152906000908290869082906001600160a01b03165afa918215610d5d57600092610f8d575b505060843560a082015103610f7b57610140810180516003811015610f6657610f3057506001600160a01b03841615610f1e5760808101516001600160a01b039081169085168103610ef35750606435602082015114801590610ee3575b610ed1576101008101516001600160a01b03908116908335168103610ea5575061012001516101c4358103610e855750600054604051627eeac760e11b81526001600160a01b038581166004830152604480356024840152921691602090829081855afa908115610d5d57600091610e53575b5015610e2b57604051633295655360e21b815260643560048201526020818581855afa908115610d5d57600091610df1575b506001600160a01b038116918215610dd857604051627eeac760e11b81526001600160a01b0383166004820152606435602482015290602090829060449082905afa908115610d5d57600091610da6575b5015610d7b575081356001600160a01b031615610d69576040516323b872dd60e01b81526001600160a01b0385811660048301528482018390526101c4356044830152602090829060649082906000908835165af1908115610d5d57600091610d2e575b5015610d1c576040519360018060a01b031684526020840152608435604084015260018060a01b0390351660608301526101c43560808301524260a0830152606435917f3b748be8d73453d96def3f39bd46be58bc55c6174843ab84e3b46113209b613560c0604435933592a460016000805160206114a983398151915255005b604051632ee66eed60e01b8152600490fd5b610d50915060203d602011610d56575b610d488183611226565b81019061129b565b85610c9b565b503d610d3e565b6040513d6000823e3d90fd5b60405163c2cf440960e01b8152600490fd5b6040516344d4c07760e11b81526001600160a01b039190911660048201526064356024820152604490fd5b90506020813d602011610dd0575b81610dc160209383611226565b81010312610356575186610c37565b3d9150610db4565b60405163022397ef60e11b815260643560048201528590fd5b90506020813d602011610e23575b81610e0c60209383611226565b8101031261035657610e1d90611287565b85610be6565b3d9150610dff565b6040516314000add60e01b81526001600160a01b038516600482015260448035602483015290fd5b90506020813d602011610e7d575b81610e6e60209383611226565b81010312610356575185610bb4565b3d9150610e61565b82604491604051916304196eb960e41b83526101c4356004840152820152fd5b604051631346887560e01b81526001600160a01b03843581166004830152919091166024820152604490fd5b6040516311c47e6b60e11b8152600490fd5b5060443560408201511415610b41565b604051637da2798360e01b81526001600160a01b038681166004830152919091166024820152604490fd5b604051630c7e21ef60e41b8152600490fd5b8390516003811015610f515760405190630f6dded960e41b82526004820152fd5b50634e487b7160e01b60009081526021600452fd5b84634e487b7160e01b60005260216004526000fd5b604051630c57756360e21b8152600490fd5b9091503d806000843e610fa08184611226565b82019160208184031261035657805190828211610356570190610180928383820312610356576040519384018481108382111761109a57604052825184526020830151602085015260408301516040850152610ffe60608401611287565b606085015261100f60808401611287565b608085015260a083015160a085015260c083015182811161035657816110369185016112b3565b60c085015260e0830151918211610356576110529183016112b3565b60e0830152610100611065818301611287565b908301526101208082015190830152610140808201519060038210156103565783015261016080910151908201528480610ae3565b86634e487b7160e01b60005260416004526000fd5b6040516309bde33960e01b8152600490fd5b6110da915060203d602011610d5657610d488183611226565b85610aa1565b829350602080916001939451815201930191018492610a73565b8293945060408181600194958194370193019101859392610a56565b85634e487b7160e01b60005260416004526000fd5b604051635866c86960e01b815260206004820152600d60248201526c4261736963416363657373563160981b6044820152606490fd5b90506020813d602011611193575b8161117c60209383611226565b810103126103565761118d90611287565b846109d5565b3d915061116f565b60405162461bcd60e51b815260206004820152600d818401526c27b7363c9032bc32b1baba37b960991b6044820152606490fd5b633ee5aeb560e01b8152600490fd5b600435906001600160a01b038216820361035657565b6040810190811067ffffffffffffffff82111761121057604052565b634e487b7160e01b600052604160045260246000fd5b90601f8019910116810190811067ffffffffffffffff82111761121057604052565b67ffffffffffffffff811161121057601f01601f191660200190565b60005b8381106112775750506000910152565b8181015183820152602001611267565b51906001600160a01b038216820361035657565b90816020910312610356575180151581036103565790565b81601f820112156103565780516112c981611248565b926112d76040519485611226565b81845260208284010111610356576112f59160208085019101611264565b90565b156112ff57565b60405162461bcd60e51b815260206004820152601060248201526f24b73b30b634b21032bc32b1baba37b960811b6044820152606490fd5b6001600160a01b039081169081156113925760008051602061148983398151915280546001600160a01b031981168417909155167f8be0079c531659141344cd1fd0a4f28419497f9722a3daafe3b4186f6b6457e0600080a3565b604051631e4fbdf760e01b815260006004820152602490fd5b600080516020611489833981519152546001600160a01b031633036113cc57565b60405163118cdaa760e01b8152336004820152602490fd5b60ff7ff0c57e16840df040f15088dc2f81fe391c3923bec73e23a9662efc9c229c6a005460401c161561141357565b604051631afcd79f60e31b8152600490fd5b9061144c575080511561143a57805190602001fd5b60405163d6bda27560e01b8152600490fd5b8151158061147f575b61145d575090565b604051639996b31560e01b81526001600160a01b039091166004820152602490fd5b50803b1561145556fe9016d09d72d40fdae2fd8ceac6b6234c7706214fd39c1cd1e609a0528c1993009b779b17422d0df92223018b32b4d1fa46e071723d6817e2486d003becc55f00a2646970667358221220be94d633b6a5d4c2d105d7eb85a0d07f102ebba3acbe1d9a76ec60037bb8186564736f6c63430008180033",
    "linkReferences": {},
    "deployedLinkReferences": {}
}