{
    "_format": "hh-sol-artifact-1",
    "contractName": "IntegraSignalV4_5",
    "sourceName": "contracts/IntegraSignalV4_5.sol",
    "abi": [
        {
            "inputs": [],
            "stateMutability": "nonpayable",
            "type": "constructor"
        },
        {
            "inputs": [
                {
                    "internalType": "address",
                    "name": "target",
                    "type": "address"
                }
            ],
            "name": "AddressEmptyCode",
            "type": "error"
        },
        {
            "inputs": [
                {
                    "internalType": "enum IntegraSignalV4_5.PaymentState",
                    "name": "state",
                    "type": "uint8"
                }
            ],
            "name": "CannotCancelNonRequestedState",
            "type": "error"
        },
        {
            "inputs": [
                {
                    "internalType": "address",
                    "name": "implementation",
                    "type": "address"
                }
            ],
            "name": "ERC1967InvalidImplementation",
            "type": "error"
        },
        {
            "inputs": [],
            "name": "ERC1967NonPayable",
            "type": "error"
        },
        {
            "inputs": [],
            "name": "FailedCall",
            "type": "error"
        },
        {
            "inputs": [],
            "name": "InvalidCallerAddress",
            "type": "error"
        },
        {
            "inputs": [],
            "name": "InvalidCurrencyAddress",
            "type": "error"
        },
        {
            "inputs": [],
            "name": "InvalidInitialization",
            "type": "error"
        },
        {
            "inputs": [],
            "name": "InvalidProcessHash",
            "type": "error"
        },
        {
            "inputs": [],
            "name": "InvalidProof",
            "type": "error"
        },
        {
            "inputs": [],
            "name": "NotInitializing",
            "type": "error"
        },
        {
            "inputs": [
                {
                    "internalType": "address",
                    "name": "caller",
                    "type": "address"
                },
                {
                    "internalType": "address",
                    "name": "sender",
                    "type": "address"
                }
            ],
            "name": "OnlySenderCanCancel",
            "type": "error"
        },
        {
            "inputs": [
                {
                    "internalType": "address",
                    "name": "owner",
                    "type": "address"
                }
            ],
            "name": "OwnableInvalidOwner",
            "type": "error"
        },
        {
            "inputs": [
                {
                    "internalType": "address",
                    "name": "account",
                    "type": "address"
                }
            ],
            "name": "OwnableUnauthorizedAccount",
            "type": "error"
        },
        {
            "inputs": [
                {
                    "internalType": "bytes32",
                    "name": "processHash",
                    "type": "bytes32"
                }
            ],
            "name": "ProcessHashAlreadyUsed",
            "type": "error"
        },
        {
            "inputs": [
                {
                    "internalType": "address",
                    "name": "recipient",
                    "type": "address"
                },
                {
                    "internalType": "uint256",
                    "name": "tokenId",
                    "type": "uint256"
                }
            ],
            "name": "RecipientMustHoldToken",
            "type": "error"
        },
        {
            "inputs": [
                {
                    "internalType": "uint256",
                    "name": "tokenId",
                    "type": "uint256"
                }
            ],
            "name": "RecipientTokenNotIssued",
            "type": "error"
        },
        {
            "inputs": [],
            "name": "ReentrancyGuardReentrantCall",
            "type": "error"
        },
        {
            "inputs": [
                {
                    "internalType": "address",
                    "name": "sender",
                    "type": "address"
                },
                {
                    "internalType": "uint256",
                    "name": "tokenId",
                    "type": "uint256"
                }
            ],
            "name": "SenderMustHoldToken",
            "type": "error"
        },
        {
            "inputs": [],
            "name": "UUPSUnauthorizedCallContext",
            "type": "error"
        },
        {
            "inputs": [
                {
                    "internalType": "bytes32",
                    "name": "slot",
                    "type": "bytes32"
                }
            ],
            "name": "UUPSUnsupportedProxiableUUID",
            "type": "error"
        },
        {
            "inputs": [
                {
                    "internalType": "string",
                    "name": "circuitId",
                    "type": "string"
                }
            ],
            "name": "VerifierNotFound",
            "type": "error"
        },
        {
            "anonymous": false,
            "inputs": [
                {
                    "indexed": true,
                    "internalType": "address",
                    "name": "oldExecutor",
                    "type": "address"
                },
                {
                    "indexed": true,
                    "internalType": "address",
                    "name": "newExecutor",
                    "type": "address"
                }
            ],
            "name": "ExecutorUpdated",
            "type": "event"
        },
        {
            "anonymous": false,
            "inputs": [
                {
                    "indexed": false,
                    "internalType": "uint64",
                    "name": "version",
                    "type": "uint64"
                }
            ],
            "name": "Initialized",
            "type": "event"
        },
        {
            "anonymous": false,
            "inputs": [
                {
                    "indexed": true,
                    "internalType": "bytes32",
                    "name": "integraHash",
                    "type": "bytes32"
                },
                {
                    "indexed": true,
                    "internalType": "uint256",
                    "name": "senderTokenId",
                    "type": "uint256"
                },
                {
                    "indexed": true,
                    "internalType": "uint256",
                    "name": "recipientTokenId",
                    "type": "uint256"
                },
                {
                    "indexed": false,
                    "internalType": "address",
                    "name": "sender",
                    "type": "address"
                },
                {
                    "indexed": false,
                    "internalType": "address",
                    "name": "recipient",
                    "type": "address"
                },
                {
                    "indexed": false,
                    "internalType": "bytes32",
                    "name": "processHash",
                    "type": "bytes32"
                },
                {
                    "indexed": false,
                    "internalType": "string",
                    "name": "eventRef",
                    "type": "string"
                },
                {
                    "indexed": false,
                    "internalType": "string",
                    "name": "message",
                    "type": "string"
                },
                {
                    "indexed": false,
                    "internalType": "uint256",
                    "name": "timestamp",
                    "type": "uint256"
                }
            ],
            "name": "MessageSent",
            "type": "event"
        },
        {
            "anonymous": false,
            "inputs": [
                {
                    "indexed": true,
                    "internalType": "address",
                    "name": "previousOwner",
                    "type": "address"
                },
                {
                    "indexed": true,
                    "internalType": "address",
                    "name": "newOwner",
                    "type": "address"
                }
            ],
            "name": "OwnershipTransferred",
            "type": "event"
        },
        {
            "anonymous": false,
            "inputs": [
                {
                    "indexed": true,
                    "internalType": "bytes32",
                    "name": "integraHash",
                    "type": "bytes32"
                },
                {
                    "indexed": true,
                    "internalType": "uint256",
                    "name": "senderTokenId",
                    "type": "uint256"
                },
                {
                    "indexed": true,
                    "internalType": "uint256",
                    "name": "recipientTokenId",
                    "type": "uint256"
                },
                {
                    "indexed": false,
                    "internalType": "address",
                    "name": "sender",
                    "type": "address"
                },
                {
                    "indexed": false,
                    "internalType": "address",
                    "name": "recipient",
                    "type": "address"
                },
                {
                    "indexed": false,
                    "internalType": "bytes32",
                    "name": "processHash",
                    "type": "bytes32"
                },
                {
                    "indexed": false,
                    "internalType": "string",
                    "name": "eventRef",
                    "type": "string"
                },
                {
                    "indexed": false,
                    "internalType": "string",
                    "name": "message",
                    "type": "string"
                },
                {
                    "indexed": false,
                    "internalType": "address",
                    "name": "currency",
                    "type": "address"
                },
                {
                    "indexed": false,
                    "internalType": "uint256",
                    "name": "amount",
                    "type": "uint256"
                },
                {
                    "indexed": false,
                    "internalType": "enum IntegraSignalV4_5.PaymentState",
                    "name": "state",
                    "type": "uint8"
                },
                {
                    "indexed": false,
                    "internalType": "uint256",
                    "name": "timestamp",
                    "type": "uint256"
                }
            ],
            "name": "SignalSent",
            "type": "event"
        },
        {
            "anonymous": false,
            "inputs": [
                {
                    "indexed": true,
                    "internalType": "address",
                    "name": "implementation",
                    "type": "address"
                }
            ],
            "name": "Upgraded",
            "type": "event"
        },
        {
            "inputs": [],
            "name": "UPGRADE_INTERFACE_VERSION",
            "outputs": [
                {
                    "internalType": "string",
                    "name": "",
                    "type": "string"
                }
            ],
            "stateMutability": "view",
            "type": "function"
        },
        {
            "inputs": [
                {
                    "internalType": "address",
                    "name": "_caller",
                    "type": "address"
                },
                {
                    "internalType": "bytes32",
                    "name": "_processHash",
                    "type": "bytes32"
                },
                {
                    "internalType": "uint256[2]",
                    "name": "_proofA",
                    "type": "uint256[2]"
                },
                {
                    "internalType": "uint256[2][2]",
                    "name": "_proofB",
                    "type": "uint256[2][2]"
                },
                {
                    "internalType": "uint256[2]",
                    "name": "_proofC",
                    "type": "uint256[2]"
                }
            ],
            "name": "cancelPaymentSignal",
            "outputs": [],
            "stateMutability": "nonpayable",
            "type": "function"
        },
        {
            "inputs": [],
            "name": "executor",
            "outputs": [
                {
                    "internalType": "address",
                    "name": "",
                    "type": "address"
                }
            ],
            "stateMutability": "view",
            "type": "function"
        },
        {
            "inputs": [
                {
                    "internalType": "bytes32",
                    "name": "_processHash",
                    "type": "bytes32"
                }
            ],
            "name": "getPaymentRequest",
            "outputs": [
                {
                    "components": [
                        {
                            "internalType": "bytes32",
                            "name": "integraHash",
                            "type": "bytes32"
                        },
                        {
                            "internalType": "uint256",
                            "name": "senderTokenId",
                            "type": "uint256"
                        },
                        {
                            "internalType": "uint256",
                            "name": "recipientTokenId",
                            "type": "uint256"
                        },
                        {
                            "internalType": "address",
                            "name": "sender",
                            "type": "address"
                        },
                        {
                            "internalType": "address",
                            "name": "recipient",
                            "type": "address"
                        },
                        {
                            "internalType": "bytes32",
                            "name": "processHash",
                            "type": "bytes32"
                        },
                        {
                            "internalType": "string",
                            "name": "eventRef",
                            "type": "string"
                        },
                        {
                            "internalType": "string",
                            "name": "message",
                            "type": "string"
                        },
                        {
                            "internalType": "address",
                            "name": "currency",
                            "type": "address"
                        },
                        {
                            "internalType": "uint256",
                            "name": "amount",
                            "type": "uint256"
                        },
                        {
                            "internalType": "enum IntegraSignalV4_5.PaymentState",
                            "name": "state",
                            "type": "uint8"
                        },
                        {
                            "internalType": "uint256",
                            "name": "timestamp",
                            "type": "uint256"
                        }
                    ],
                    "internalType": "struct IntegraSignalV4_5.PaymentRequest",
                    "name": "",
                    "type": "tuple"
                }
            ],
            "stateMutability": "view",
            "type": "function"
        },
        {
            "inputs": [
                {
                    "internalType": "address",
                    "name": "_executor",
                    "type": "address"
                },
                {
                    "internalType": "address",
                    "name": "_ledger",
                    "type": "address"
                },
                {
                    "internalType": "address",
                    "name": "_verifierRegistry",
                    "type": "address"
                }
            ],
            "name": "initialize",
            "outputs": [],
            "stateMutability": "nonpayable",
            "type": "function"
        },
        {
            "inputs": [],
            "name": "ledger",
            "outputs": [
                {
                    "internalType": "contract IntegraInterfaceV4_5",
                    "name": "",
                    "type": "address"
                }
            ],
            "stateMutability": "view",
            "type": "function"
        },
        {
            "inputs": [],
            "name": "owner",
            "outputs": [
                {
                    "internalType": "address",
                    "name": "",
                    "type": "address"
                }
            ],
            "stateMutability": "view",
            "type": "function"
        },
        {
            "inputs": [
                {
                    "internalType": "bytes32",
                    "name": "",
                    "type": "bytes32"
                }
            ],
            "name": "paymentRequests",
            "outputs": [
                {
                    "internalType": "bytes32",
                    "name": "integraHash",
                    "type": "bytes32"
                },
                {
                    "internalType": "uint256",
                    "name": "senderTokenId",
                    "type": "uint256"
                },
                {
                    "internalType": "uint256",
                    "name": "recipientTokenId",
                    "type": "uint256"
                },
                {
                    "internalType": "address",
                    "name": "sender",
                    "type": "address"
                },
                {
                    "internalType": "address",
                    "name": "recipient",
                    "type": "address"
                },
                {
                    "internalType": "bytes32",
                    "name": "processHash",
                    "type": "bytes32"
                },
                {
                    "internalType": "string",
                    "name": "eventRef",
                    "type": "string"
                },
                {
                    "internalType": "string",
                    "name": "message",
                    "type": "string"
                },
                {
                    "internalType": "address",
                    "name": "currency",
                    "type": "address"
                },
                {
                    "internalType": "uint256",
                    "name": "amount",
                    "type": "uint256"
                },
                {
                    "internalType": "enum IntegraSignalV4_5.PaymentState",
                    "name": "state",
                    "type": "uint8"
                },
                {
                    "internalType": "uint256",
                    "name": "timestamp",
                    "type": "uint256"
                }
            ],
            "stateMutability": "view",
            "type": "function"
        },
        {
            "inputs": [],
            "name": "proxiableUUID",
            "outputs": [
                {
                    "internalType": "bytes32",
                    "name": "",
                    "type": "bytes32"
                }
            ],
            "stateMutability": "view",
            "type": "function"
        },
        {
            "inputs": [],
            "name": "renounceOwnership",
            "outputs": [],
            "stateMutability": "nonpayable",
            "type": "function"
        },
        {
            "inputs": [
                {
                    "internalType": "address",
                    "name": "_caller",
                    "type": "address"
                },
                {
                    "internalType": "bytes32",
                    "name": "_integraHash",
                    "type": "bytes32"
                },
                {
                    "internalType": "uint256",
                    "name": "_senderTokenId",
                    "type": "uint256"
                },
                {
                    "internalType": "uint256",
                    "name": "_recipientTokenId",
                    "type": "uint256"
                },
                {
                    "internalType": "bytes32",
                    "name": "_processHash",
                    "type": "bytes32"
                },
                {
                    "internalType": "uint256[2]",
                    "name": "_proofA",
                    "type": "uint256[2]"
                },
                {
                    "internalType": "uint256[2][2]",
                    "name": "_proofB",
                    "type": "uint256[2][2]"
                },
                {
                    "internalType": "uint256[2]",
                    "name": "_proofC",
                    "type": "uint256[2]"
                },
                {
                    "internalType": "string",
                    "name": "_eventRef",
                    "type": "string"
                },
                {
                    "internalType": "string",
                    "name": "_message",
                    "type": "string"
                }
            ],
            "name": "sendMessageSignal",
            "outputs": [],
            "stateMutability": "nonpayable",
            "type": "function"
        },
        {
            "inputs": [
                {
                    "internalType": "address",
                    "name": "_caller",
                    "type": "address"
                },
                {
                    "internalType": "bytes32",
                    "name": "_integraHash",
                    "type": "bytes32"
                },
                {
                    "internalType": "uint256",
                    "name": "_senderTokenId",
                    "type": "uint256"
                },
                {
                    "internalType": "uint256",
                    "name": "_recipientTokenId",
                    "type": "uint256"
                },
                {
                    "internalType": "bytes32",
                    "name": "_processHash",
                    "type": "bytes32"
                },
                {
                    "internalType": "uint256[2]",
                    "name": "_proofA",
                    "type": "uint256[2]"
                },
                {
                    "internalType": "uint256[2][2]",
                    "name": "_proofB",
                    "type": "uint256[2][2]"
                },
                {
                    "internalType": "uint256[2]",
                    "name": "_proofC",
                    "type": "uint256[2]"
                },
                {
                    "internalType": "string",
                    "name": "_eventRef",
                    "type": "string"
                },
                {
                    "internalType": "string",
                    "name": "_message",
                    "type": "string"
                },
                {
                    "internalType": "address",
                    "name": "_currency",
                    "type": "address"
                },
                {
                    "internalType": "uint256",
                    "name": "_amount",
                    "type": "uint256"
                }
            ],
            "name": "sendPaymentSignal",
            "outputs": [],
            "stateMutability": "nonpayable",
            "type": "function"
        },
        {
            "inputs": [
                {
                    "internalType": "address",
                    "name": "newOwner",
                    "type": "address"
                }
            ],
            "name": "transferOwnership",
            "outputs": [],
            "stateMutability": "nonpayable",
            "type": "function"
        },
        {
            "inputs": [
                {
                    "internalType": "address",
                    "name": "newExecutor",
                    "type": "address"
                }
            ],
            "name": "updateExecutor",
            "outputs": [],
            "stateMutability": "nonpayable",
            "type": "function"
        },
        {
            "inputs": [
                {
                    "internalType": "address",
                    "name": "_newLedger",
                    "type": "address"
                }
            ],
            "name": "updateLedgerContract",
            "outputs": [],
            "stateMutability": "nonpayable",
            "type": "function"
        },
        {
            "inputs": [
                {
                    "internalType": "bytes32",
                    "name": "_processHash",
                    "type": "bytes32"
                },
                {
                    "internalType": "enum IntegraSignalV4_5.PaymentState",
                    "name": "_newState",
                    "type": "uint8"
                }
            ],
            "name": "updatePaymentState",
            "outputs": [],
            "stateMutability": "nonpayable",
            "type": "function"
        },
        {
            "inputs": [
                {
                    "internalType": "address",
                    "name": "newImplementation",
                    "type": "address"
                },
                {
                    "internalType": "bytes",
                    "name": "data",
                    "type": "bytes"
                }
            ],
            "name": "upgradeToAndCall",
            "outputs": [],
            "stateMutability": "payable",
            "type": "function"
        },
        {
            "inputs": [],
            "name": "verifierRegistry",
            "outputs": [
                {
                    "internalType": "address",
                    "name": "",
                    "type": "address"
                }
            ],
            "stateMutability": "view",
            "type": "function"
        }
    ],
    "bytecode": "0x60a080604052346100cc57306080527ff0c57e16840df040f15088dc2f81fe391c3923bec73e23a9662efc9c229c6a009081549060ff8260401c166100bd57506001600160401b036002600160401b031982821601610078575b60405161207d90816100d2823960805181818161098f0152610a480152f35b6001600160401b031990911681179091556040519081527fc7f505b2f371ae2175ee4913f4499e1f2633a7b5936321eed1cdaeb6115181d290602090a1388080610059565b63f92ee8a960e01b8152600490fd5b600080fdfe6080604052600436101561001257600080fd5b60003560e01c80630d7a55ba146119305780630eb17ec81461111e5780634574b36114610f2a5780634853189e14610c275780634f1ef286146109f957806352d1902d1461097c57806356397c3514610953578063715018a6146108e957806374936c1614610874578063854d347c1461047d57806386a23a6b146104545780638da5cb5b1461041e5780639d3617e6146103db578063ad3cb1cc14610391578063b219876114610373578063c0c53b8b1461013b578063c34c08e5146101125763f2fde38b146100e257600080fd5b3461010d57602036600319011261010d5761010b6100fe611ba5565b610106611f2a565b611e39565b005b600080fd5b3461010d57600036600319011261010d576001546040516001600160a01b039091168152602090f35b3461010d57606036600319011261010d57610154611ba5565b6001600160a01b0390602435828116919082900361010d5760443583811680910361010d577ff0c57e16840df040f15088dc2f81fe391c3923bec73e23a9662efc9c229c6a009283549460ff8660401c1615936001600160401b0387169687158061036c575b60018099149081610362575b159081610359575b506103475767ffffffffffffffff1981168817875585610328575b506101f2611f63565b6101fa611f63565b610202611f63565b61020b33611e39565b610213611f63565b61021b611f63565b86600080516020612028833981519152551690610239821515611dfa565b80156102f25782156102ad576001600160601b0360a01b9182875416178655816000541617600055600254161760025561026f57005b805468ff0000000000000000191690556040519081527fc7f505b2f371ae2175ee4913f4499e1f2633a7b5936321eed1cdaeb6115181d290602090a1005b60405162461bcd60e51b815260206004820152601960248201527f496e76616c6964207665726966696572207265676973747279000000000000006044820152606490fd5b60405162461bcd60e51b815260206004820152600e60248201526d24b73b30b634b2103632b233b2b960911b6044820152606490fd5b68ffffffffffffffffff191668010000000000000001178655876101e9565b60405163f92ee8a960e01b8152600490fd5b905015896101ce565b303b1591506101c6565b50856101ba565b3461010d57604036600319011261010d576003602435101561010d57005b3461010d57600036600319011261010d576103d76040516103b181611a77565b60058152640352e302e360dc1b6020820152604051918291602083526020830190611b58565b0390f35b3461010d57602036600319011261010d576103f4611ba5565b6103fc611f2a565b600080546001600160a01b0319166001600160a01b0392909216919091179055005b3461010d57600036600319011261010d57600080516020612008833981519152546040516001600160a01b039091168152602090f35b3461010d57600036600319011261010d576002546040516001600160a01b039091168152602090f35b3461010d576101e036600319011261010d57610497611ba5565b604435606435916084353660e41161010d57366101641161010d576101a436811161010d57356001600160401b039081811161010d576104db903690600401611bbb565b916101c43590811161010d576104f5903690600401611bbb565b929093610500611ead565b6001546001600160a01b03969061051a9088163314611c3a565b600254604051630f7a555160e21b8152602091829082908b16818061054160048201611c95565b03915afa8015610741578991600091610857575b5016801561083d57816105879161056b86611edd565b906040518080958194637ae4eb4f60e11b835260048301611cd5565b03915afa90811561074157600091610810575b50156107fe578782169788156107ec57600054604051627eeac760e11b8082526001600160a01b0386166004830152602482018d90529491831691908481604481865afa908115610741576000916107bf575b50156107955750604051633295655360e21b8152600481018d9052918383602481855afa92831561074157600093610766575b50821693841561074d576040519081526001600160a01b0383166004820152602481018d9052908390829060449082905afa90811561074157600091610714575b50156106e65750926106b5927fb6525882082101f2dff5b79ac015e62223bffc629b7660deb3e4713cde4c5c549795926106c397956040519a8b528a0152604089015260c0606089015260c0880191611d43565b918583036080870152611d43565b914260a082015280602435930390a4600160008051602061202883398151915255005b6040516344d4c07760e11b81526001600160a01b03919091166004820152602481018b9052604490fd5b0390fd5b90508281813d831161073a575b61072b8183611a92565b8101031261010d57518c610661565b503d610721565b6040513d6000823e3d90fd5b60405163022397ef60e11b8152600481018e9052602490fd5b610787919350843d861161078e575b61077f8183611a92565b810190611c76565b918d610620565b503d610775565b6040516314000add60e01b81526001600160a01b03919091166004820152602481018c9052604490fd5b90508481813d83116107e5575b6107d68183611a92565b8101031261010d57518e6105ed565b503d6107cc565b604051630c7e21ef60e41b8152600490fd5b6040516309bde33960e01b8152600490fd5b6108309150823d8411610836575b6108288183611a92565b810190611cbd565b8b61059a565b503d61081e565b604051635866c86960e01b81528061071060048201611c95565b61086e9150833d851161078e5761077f8183611a92565b8c610555565b3461010d57602036600319011261010d5761088d611ba5565b610895611f2a565b6001600160a01b03908116906108ac821515611dfa565b600154826001600160601b0360a01b821617600155167f0ef3c7eb9dbcf33ddf032f4cce366a07eda85eed03e3172e4a90c4cc16d57886600080a3005b3461010d57600036600319011261010d57610902611f2a565b60008051602061200883398151915280546001600160a01b031981169091556000906001600160a01b03167f8be0079c531659141344cd1fd0a4f28419497f9722a3daafe3b4186f6b6457e08280a3005b3461010d57600036600319011261010d576000546040516001600160a01b039091168152602090f35b3461010d57600036600319011261010d577f00000000000000000000000000000000000000000000000000000000000000006001600160a01b031630036109e75760206040517f360894a13ba1a3210667c828492db98dca3e2076cc3735a920a3ca505d382bbc8152f35b60405163703e46dd60e11b8152600490fd5b604036600319011261010d57610a0d611ba5565b6024356001600160401b03811161010d573660238201121561010d57610a3d903690602481600401359101611c03565b906001600160a01b037f00000000000000000000000000000000000000000000000000000000000000008116308114908115610bf9575b506109e757610a81611f2a565b6040516352d1902d60e01b8152908216916020918281600481875afa60009181610bca575b50610ac457604051634c9c8ce360e01b815260048101859052602490fd5b9284937f360894a13ba1a3210667c828492db98dca3e2076cc3735a920a3ca505d382bbc90818103610bb25750823b15610b995780546001600160a01b03191682179055604051907fbc7cd75a20ee27fd9adebab32041f755214dbc6bffa90cc0225b39da2e5c2d3b600080a2835115610b7f5750600080848461010b96519101845af4903d15610b76573d610b5981611be8565b90610b676040519283611a92565b8152600081943d92013e611fa4565b60609250611fa4565b9250505034610b8a57005b63b398979f60e01b8152600490fd5b604051634c9c8ce360e01b815260048101839052602490fd5b60249060405190632a87526960e21b82526004820152fd5b9091508381813d8311610bf2575b610be28183611a92565b8101031261010d57519086610aa6565b503d610bd8565b9050817f360894a13ba1a3210667c828492db98dca3e2076cc3735a920a3ca505d382bbc5416141584610a74565b3461010d5761014036600319011261010d57610c41611ba5565b3660841161010d57366101041161010d57366101441161010d57610c63611ead565b610c7860018060a01b03600154163314611c3a565b600254604051630f7a555160e21b81529060209082906001600160a01b03168180610ca560048201611c95565b03915afa90811561074157600091610f0b575b506001600160a01b0381161561083d57610cd3602435611edd565b60408051637ae4eb4f60e11b8152929183916044600484013760846000604484015b60028210610eef57505050604061010460c4840137600061010483015b60028210610ed5575060209361014492508391506001600160a01b03165afa90811561074157600091610eb6575b50156107fe576024356000908152600360205260409020906001600160a01b031680156107ec5760038201546001600160a01b031690808203610e995750600a8201805460ff81166003811015610e835780610e63575060029060ff191617905581547ff231bdf9a75733db5ef410688a51ebac3f0fe8bef3abeae8eb464dc85233556960018401549260028501549460018060a01b036004820154169060018060a01b0360088201541690610e336009820154916007610e2460405197889761012091895260208901526024356040890152806060890152870160068401611d64565b91868303608088015201611d64565b9160a084015260c0830152600260e0830152426101008301520390a4600160008051602061202883398151915255005b6040516389bfaf8b60e01b8152602491610e81906004830190611b98565bfd5b634e487b7160e01b600052602160045260246000fd5b60449160405191630b5a0e6b60e41b835260048301526024820152fd5b610ecf915060203d602011610836576108288183611a92565b82610d40565b829350602080916001939451815201930191018492610d12565b8293945060408181600194958194370193019101859392610cf5565b610f24915060203d60201161078e5761077f8183611a92565b82610cb8565b3461010d57602036600319011261010d576000610160604051610f4c81611a5b565b8281528260208201528260408201528260608201528260808201528260a0820152606060c0820152606060e082015282610100820152826101208201528261014082015201526004356000526003602052604060002060405190610faf82611a5b565b80548252600181015460208301526002810154604083015260038101546001600160a01b0390811660608401526004820154166080830152600581015460a0830152610ffd60068201611ab3565b60c083015261100e60078201611ab3565b60e083015260088101546001600160a01b03166101008301526009810154610120830152600a81015460ff16906003821015610e8357600b91610140840152015461016082015260405180916020825280516020830152602081015160408301526040810151606083015260018060a01b03606082015116608083015260018060a01b0360808201511660a083015260a081015160c083015260c08101516101606110e16110ca610180938460e08801526101a0870190611b58565b60e0850151868203601f1901610100880152611b58565b9260018060a01b036101008201511661012086015261012081015161014086015261111461014082015183870190611b98565b0151908301520390f35b3461010d5761022036600319011261010d57611138611ba5565b3660e41161010d57366101641161010d576101a436811161010d57356001600160401b03811161010d57611170903690600401611bbb565b906101c4356001600160401b03811161010d57611191903690600401611bbb565b90916101e4356001600160a01b038116900361010d576111af611ead565b6111c460018060a01b03600154163314611c3a565b600254604051630f7a555160e21b81529060209082906001600160a01b031681806111f160048201611c95565b03915afa90811561074157600091611911575b506001600160a01b0381161561083d5760206112259161056b608435611edd565b03916001600160a01b03165afa908115610741576000916118f2575b50156107fe5760843560005260036020526005604060002001546118d8576001600160a01b038516156107ec57600054604051627eeac760e11b81526001600160a01b03878116600483015260448035602484015292169291602090829081865afa908115610741576000916118a6575b501561187e57604051633295655360e21b8152606435600482015291602083602481845afa9283156107415760009361185d575b506001600160a01b0383161561184357604051627eeac760e11b81526001600160a01b0384166004820152606435602482015290602090829060449082905afa90811561074157600091611811575b50156117e8576101e4356001600160a01b0316156117d6576040519461135a86611a5b565b6024358652604435602087015260643560408701526001600160a01b0387811660608801528316608087015260843560a0870152611399368284611c03565b60c08701526113a9368587611c03565b60e087015260018060a01b036101e435166101008701526102043561012087015260006101408701524261016087015260843560005260036020526040600020928651845560208701516001850155604087015160028501556003840160018060a01b036060890151166001600160601b0360a01b8254161790556004840160018060a01b036080890151166001600160601b0360a01b82541617905560a0870151600585015560c08701518051906001600160401b0382116116f05781906114756006880154611a21565b601f8111611783575b50602090601f831160011461171157600092611706575b50508160011b916000199060031b1c19161760068501555b60e08701518051906001600160401b0382116116f05781906114d26007880154611a21565b601f811161169d575b50602090601f831160011461162b57600092611620575b50508160011b916000199060031b1c19161760078501555b6008840160018060a01b03610100890151166001600160601b0360a01b8254161790556101208701516009850155610140870151936003851015610e8357600b6101606115b0996115a29760ff8019600a87015416911617600a85015501519101556040519760018060a01b0316885260018060a01b0316602088015260843560408801526101206060880152610120870191611d43565b918483036080860152611d43565b6101e4356001600160a01b031660a08301526102043560c0830152600060e0830152426101008301526064359160443591602435917ff231bdf9a75733db5ef410688a51ebac3f0fe8bef3abeae8eb464dc8523355699181900390a4600160008051602061202883398151915255005b015190508a806114f2565b9250600787016000526020600020906000935b601f1984168510611682576001945083601f19811610611669575b505050811b01600785015561150a565b015160001960f88460031b161c191690558a8080611659565b8181015183556020948501946001909301929091019061163e565b909150600787016000526020600020601f840160051c8101602085106116e9575b90849392915b601f830160051c820181106116da5750506114db565b600081558594506001016116c4565b50806116be565b634e487b7160e01b600052604160045260246000fd5b015190508a80611495565b9250600687016000526020600020906000935b601f1984168510611768576001945083601f1981161061174f575b505050811b0160068501556114ad565b015160001960f88460031b161c191690558a808061173f565b81810151835560209485019460019093019290910190611724565b909150600687016000526020600020601f840160051c8101602085106117cf575b90849392915b601f830160051c820181106117c057505061147e565b600081558594506001016117aa565b50806117a4565b60405163c2cf440960e01b8152600490fd5b6040516344d4c07760e11b81526001600160a01b03831660048201526064356024820152604490fd5b90506020813d60201161183b575b8161182c60209383611a92565b8101031261010d575187611335565b3d915061181f565b60405163022397ef60e11b81526064356004820152602490fd5b61187791935060203d60201161078e5761077f8183611a92565b91876112e6565b6040516314000add60e01b81526001600160a01b038716600482015260448035602483015290fd5b90506020813d6020116118d0575b816118c160209383611a92565b8101031261010d5751876112b2565b3d91506118b4565b604051634c86bb2b60e11b81526084356004820152602490fd5b61190b915060203d602011610836576108288183611a92565b86611241565b61192a915060203d60201161078e5761077f8183611a92565b86611204565b3461010d57602036600319011261010d57600435600052600360205260406000208054600182015490600283015492600160a01b6001900390816003820154169180600483015416906005830154946006840161198c90611ab3565b9061199960078601611ab3565b9260088601541696600986015494600a87015460ff1696600b0154976040519b8c9b610180958d5260208d015260408c015260608b015260808a015260a08901528060c089015287016119eb91611b58565b86810360e08801526119fc91611b58565b936101008601526101208501526101408401611a1791611b98565b6101608301520390f35b90600182811c92168015611a51575b6020831014611a3b57565b634e487b7160e01b600052602260045260246000fd5b91607f1691611a30565b61018081019081106001600160401b038211176116f057604052565b604081019081106001600160401b038211176116f057604052565b90601f801991011681019081106001600160401b038211176116f057604052565b90604051918260008254611ac681611a21565b90818452602094600191600181169081600014611b365750600114611af7575b505050611af592500383611a92565b565b600090815285812095935091905b818310611b1e575050611af59350820101388080611ae6565b85548884018501529485019487945091830191611b05565b92505050611af594925060ff191682840152151560051b820101388080611ae6565b919082519283825260005b848110611b84575050826000602080949584010152601f8019910116010190565b602081830181015184830182015201611b63565b906003821015610e835752565b600435906001600160a01b038216820361010d57565b9181601f8401121561010d578235916001600160401b03831161010d576020838186019501011161010d57565b6001600160401b0381116116f057601f01601f191660200190565b929192611c0f82611be8565b91611c1d6040519384611a92565b82948184528183011161010d578281602093846000960137010152565b15611c4157565b60405162461bcd60e51b815260206004820152600d60248201526c27b7363c9032bc32b1baba37b960991b6044820152606490fd5b9081602091031261010d57516001600160a01b038116810361010d5790565b60609060208152600d60208201526c4261736963416363657373563160981b60408201520190565b9081602091031261010d5751801515810361010d5790565b919061014083019260408060a4833760e460008383015b60028210611d2e57505050906101009161016460c083013701906000915b60028310611d1757505050565b600190825181526020809101920192019190611d0a565b83808281866001953701930191019091611cec565b908060209392818452848401376000828201840152601f01601f1916010190565b805460009392611d7382611a21565b91828252602093600191600181169081600014611ddb5750600114611d9a575b5050505050565b90939495506000929192528360002092846000945b838610611dc757505050500101903880808080611d93565b805485870183015294019385908201611daf565b60ff19168685015250505090151560051b010191503880808080611d93565b15611e0157565b60405162461bcd60e51b815260206004820152601060248201526f24b73b30b634b21032bc32b1baba37b960811b6044820152606490fd5b6001600160a01b03908116908115611e945760008051602061200883398151915280546001600160a01b031981168417909155167f8be0079c531659141344cd1fd0a4f28419497f9722a3daafe3b4186f6b6457e0600080a3565b604051631e4fbdf760e01b815260006004820152602490fd5b6000805160206120288339815191526002815414611ecb5760029055565b604051633ee5aeb560e01b8152600490fd5b60408051611eea81611a77565b36903760405190604082018281106001600160401b038211176116f0576040526fffffffffffffffffffffffffffffffff8116825260801c602082015290565b600080516020612008833981519152546001600160a01b03163303611f4b57565b60405163118cdaa760e01b8152336004820152602490fd5b60ff7ff0c57e16840df040f15088dc2f81fe391c3923bec73e23a9662efc9c229c6a005460401c1615611f9257565b604051631afcd79f60e31b8152600490fd5b90611fcb5750805115611fb957805190602001fd5b60405163d6bda27560e01b8152600490fd5b81511580611ffe575b611fdc575090565b604051639996b31560e01b81526001600160a01b039091166004820152602490fd5b50803b15611fd456fe9016d09d72d40fdae2fd8ceac6b6234c7706214fd39c1cd1e609a0528c1993009b779b17422d0df92223018b32b4d1fa46e071723d6817e2486d003becc55f00a264697066735822122093ef54e11699d6526296ae4ab814ea96654413ceeb371b37658bd4710d7c030864736f6c63430008180033",
    "linkReferences": {},
    "deployedLinkReferences": {}
}