{
    "_format": "hh-sol-artifact-1",
    "contractName": "IntegraVerifierRegistryV4_5",
    "sourceName": "contracts/IntegraVerifierRegistryV4_5.sol",
    "abi": [
        {
            "inputs": [
                {
                    "internalType": "address",
                    "name": "target",
                    "type": "address"
                }
            ],
            "name": "AddressEmptyCode",
            "type": "error"
        },
        {
            "inputs": [
                {
                    "internalType": "address",
                    "name": "implementation",
                    "type": "address"
                }
            ],
            "name": "ERC1967InvalidImplementation",
            "type": "error"
        },
        {
            "inputs": [],
            "name": "ERC1967NonPayable",
            "type": "error"
        },
        {
            "inputs": [],
            "name": "FailedCall",
            "type": "error"
        },
        {
            "inputs": [],
            "name": "InvalidInitialization",
            "type": "error"
        },
        {
            "inputs": [],
            "name": "NotInitializing",
            "type": "error"
        },
        {
            "inputs": [
                {
                    "internalType": "address",
                    "name": "owner",
                    "type": "address"
                }
            ],
            "name": "OwnableInvalidOwner",
            "type": "error"
        },
        {
            "inputs": [
                {
                    "internalType": "address",
                    "name": "account",
                    "type": "address"
                }
            ],
            "name": "OwnableUnauthorizedAccount",
            "type": "error"
        },
        {
            "inputs": [],
            "name": "UUPSUnauthorizedCallContext",
            "type": "error"
        },
        {
            "inputs": [
                {
                    "internalType": "bytes32",
                    "name": "slot",
                    "type": "bytes32"
                }
            ],
            "name": "UUPSUnsupportedProxiableUUID",
            "type": "error"
        },
        {
            "anonymous": false,
            "inputs": [
                {
                    "indexed": false,
                    "internalType": "uint64",
                    "name": "version",
                    "type": "uint64"
                }
            ],
            "name": "Initialized",
            "type": "event"
        },
        {
            "anonymous": false,
            "inputs": [
                {
                    "indexed": true,
                    "internalType": "address",
                    "name": "previousOwner",
                    "type": "address"
                },
                {
                    "indexed": true,
                    "internalType": "address",
                    "name": "newOwner",
                    "type": "address"
                }
            ],
            "name": "OwnershipTransferred",
            "type": "event"
        },
        {
            "anonymous": false,
            "inputs": [
                {
                    "indexed": true,
                    "internalType": "address",
                    "name": "implementation",
                    "type": "address"
                }
            ],
            "name": "Upgraded",
            "type": "event"
        },
        {
            "anonymous": false,
            "inputs": [
                {
                    "indexed": true,
                    "internalType": "string",
                    "name": "circuitId",
                    "type": "string"
                },
                {
                    "indexed": false,
                    "internalType": "address",
                    "name": "verifier",
                    "type": "address"
                },
                {
                    "indexed": false,
                    "internalType": "bytes32",
                    "name": "provingKeyHash",
                    "type": "bytes32"
                }
            ],
            "name": "VerifierRegistered",
            "type": "event"
        },
        {
            "inputs": [],
            "name": "UPGRADE_INTERFACE_VERSION",
            "outputs": [
                {
                    "internalType": "string",
                    "name": "",
                    "type": "string"
                }
            ],
            "stateMutability": "view",
            "type": "function"
        },
        {
            "inputs": [
                {
                    "internalType": "string",
                    "name": "circuitId",
                    "type": "string"
                }
            ],
            "name": "getVerifier",
            "outputs": [
                {
                    "internalType": "address",
                    "name": "",
                    "type": "address"
                }
            ],
            "stateMutability": "view",
            "type": "function"
        },
        {
            "inputs": [],
            "name": "initialize",
            "outputs": [],
            "stateMutability": "nonpayable",
            "type": "function"
        },
        {
            "inputs": [],
            "name": "owner",
            "outputs": [
                {
                    "internalType": "address",
                    "name": "",
                    "type": "address"
                }
            ],
            "stateMutability": "view",
            "type": "function"
        },
        {
            "inputs": [
                {
                    "internalType": "string",
                    "name": "",
                    "type": "string"
                }
            ],
            "name": "provingKeyHashes",
            "outputs": [
                {
                    "internalType": "bytes32",
                    "name": "",
                    "type": "bytes32"
                }
            ],
            "stateMutability": "view",
            "type": "function"
        },
        {
            "inputs": [],
            "name": "proxiableUUID",
            "outputs": [
                {
                    "internalType": "bytes32",
                    "name": "",
                    "type": "bytes32"
                }
            ],
            "stateMutability": "view",
            "type": "function"
        },
        {
            "inputs": [
                {
                    "internalType": "string",
                    "name": "circuitId",
                    "type": "string"
                },
                {
                    "internalType": "address",
                    "name": "verifier",
                    "type": "address"
                },
                {
                    "internalType": "bytes32",
                    "name": "provingKeyHash",
                    "type": "bytes32"
                }
            ],
            "name": "registerVerifier",
            "outputs": [],
            "stateMutability": "nonpayable",
            "type": "function"
        },
        {
            "inputs": [],
            "name": "renounceOwnership",
            "outputs": [],
            "stateMutability": "nonpayable",
            "type": "function"
        },
        {
            "inputs": [
                {
                    "internalType": "address",
                    "name": "newOwner",
                    "type": "address"
                }
            ],
            "name": "transferOwnership",
            "outputs": [],
            "stateMutability": "nonpayable",
            "type": "function"
        },
        {
            "inputs": [
                {
                    "internalType": "address",
                    "name": "newImplementation",
                    "type": "address"
                },
                {
                    "internalType": "bytes",
                    "name": "data",
                    "type": "bytes"
                }
            ],
            "name": "upgradeToAndCall",
            "outputs": [],
            "stateMutability": "payable",
            "type": "function"
        },
        {
            "inputs": [
                {
                    "internalType": "string",
                    "name": "",
                    "type": "string"
                }
            ],
            "name": "verifiers",
            "outputs": [
                {
                    "internalType": "address",
                    "name": "",
                    "type": "address"
                }
            ],
            "stateMutability": "view",
            "type": "function"
        }
    ],
    "bytecode": "0x60a0806040523461002a5730608052610a7b9081610030823960805181818161054701526105fc0152f35b600080fdfe6040608081526004908136101561001557600080fd5b600091823560e01c9182633de95544146102f55782634f1ef286146105ab57826352d1902d14610533578263715018a6146104c95782638129fc1c146103955782638da5cb5b1461035b578263ac205deb146102f5578263ad3cb1cc14610273578263e45ac39d14610128578263e69b6e1a146100cc57505063f2fde38b1461009d57600080fd5b346100c95760203660031901126100c9576100c66100b961089b565b6100c1610948565b6108d4565b80f35b80fd5b83346100c95760203660031901126100c95782359067ffffffffffffffff82116100c95750602061010481946101169336910161087d565b818451938285809451938492016108b1565b81016001815203019020549051908152f35b9091503461026f57606036600319011261026f57813567ffffffffffffffff811161026b5761015a903690840161087d565b6024356001600160a01b0381169190829003610267576044359361017c610948565b821561022457509061021083927f05d18768257a1deac7aa899f3ea196a026ee24d0ca65a916055ab6438064738d945190805191602081818401946101c28183886108b1565b81018b815203019020846bffffffffffffffffffffffff60a01b82541617905586855160208184516101f58183896108b1565b810160018152030190205584519283928392519283916108b1565b81010390209382519182526020820152a280f35b606490602085519162461bcd60e51b8352820152601860248201527f496e76616c6964207665726966696572206164647265737300000000000000006044820152fd5b8480fd5b8380fd5b8280fd5b83346100c957806003193601126100c9578151908282019082821067ffffffffffffffff8311176102e257506102d4935082526005815260208101640352e302e360dc1b8152825193849260208452518092816020860152858501906108b1565b601f01601f19168101030190f35b634e487b7160e01b815260418552602490fd5b91503461026f57602036600319011261026f57803567ffffffffffffffff811161026b57602093916103299136910161087d565b8361033c845192838151938492016108b1565b810191825290819003830190205490516001600160a01b039091168152f35b839034610391578160031936011261039157600080516020610a268339815191525490516001600160a01b039091168152602090f35b5080fd5b91503461026f578260031936011261026f577ff0c57e16840df040f15088dc2f81fe391c3923bec73e23a9662efc9c229c6a0090815460ff81851c16159167ffffffffffffffff8216801590816104c1575b60011490816104b7575b1590816104ae575b506104a0575067ffffffffffffffff198116600117835581610481575b5061041f610981565b610427610981565b610430336108d4565b610438610981565b610440578280f35b805468ff00000000000000001916905551600181527fc7f505b2f371ae2175ee4913f4499e1f2633a7b5936321eed1cdaeb6115181d290602090a138808280f35b68ffffffffffffffffff19166801000000000000000117825538610416565b845163f92ee8a960e01b8152fd5b905015386103f9565b303b1591506103f1565b8491506103e7565b83346100c957806003193601126100c9576104e2610948565b600080516020610a2683398151915280546001600160a01b0319811690915581906001600160a01b03167f8be0079c531659141344cd1fd0a4f28419497f9722a3daafe3b4186f6b6457e08280a380f35b83346100c957806003193601126100c957507f00000000000000000000000000000000000000000000000000000000000000006001600160a01b0316300361059e57602090517f360894a13ba1a3210667c828492db98dca3e2076cc3735a920a3ca505d382bbc8152f35b5163703e46dd60e11b8152fd5b8091925060031936011261026f576105c161089b565b9060243567ffffffffffffffff81116102675736602382011215610267576105f29036906024818701359101610841565b6001600160a01b037f000000000000000000000000000000000000000000000000000000000000000081163081149081156107bf575b506107af57610635610948565b82516352d1902d60e01b81529084169360209182818881895afa88918161077c575b50610673578451634c9c8ce360e01b8152808801879052602490fd5b7f360894a13ba1a3210667c828492db98dca3e2076cc3735a920a3ca505d382bbc969295919396908181036107665750833b1561074f5780546001600160a01b0319168217905583518792917fbc7cd75a20ee27fd9adebab32041f755214dbc6bffa90cc0225b39da2e5c2d3b8480a286511561073257505080858561072497519101845af4913d15610728573d61071661070d82610825565b925192836107ed565b81528581943d92013e6109c2565b5080f35b50606092506109c2565b945094505050503461074357505080f35b63b398979f60e01b8152fd5b8451634c9c8ce360e01b8152808401839052602490fd5b83602491875191632a87526960e21b8352820152fd5b9091508381813d83116107a8575b61079481836107ed565b810103126107a457519038610657565b8880fd5b503d61078a565b825163703e46dd60e11b81528590fd5b9050817f360894a13ba1a3210667c828492db98dca3e2076cc3735a920a3ca505d382bbc5416141538610628565b90601f8019910116810190811067ffffffffffffffff82111761080f57604052565b634e487b7160e01b600052604160045260246000fd5b67ffffffffffffffff811161080f57601f01601f191660200190565b92919261084d82610825565b9161085b60405193846107ed565b829481845281830111610878578281602093846000960137010152565b600080fd5b9080601f830112156108785781602061089893359101610841565b90565b600435906001600160a01b038216820361087857565b60005b8381106108c45750506000910152565b81810151838201526020016108b4565b6001600160a01b0390811690811561092f57600080516020610a2683398151915280546001600160a01b031981168417909155167f8be0079c531659141344cd1fd0a4f28419497f9722a3daafe3b4186f6b6457e0600080a3565b604051631e4fbdf760e01b815260006004820152602490fd5b600080516020610a26833981519152546001600160a01b0316330361096957565b60405163118cdaa760e01b8152336004820152602490fd5b60ff7ff0c57e16840df040f15088dc2f81fe391c3923bec73e23a9662efc9c229c6a005460401c16156109b057565b604051631afcd79f60e31b8152600490fd5b906109e957508051156109d757805190602001fd5b60405163d6bda27560e01b8152600490fd5b81511580610a1c575b6109fa575090565b604051639996b31560e01b81526001600160a01b039091166004820152602490fd5b50803b156109f256fe9016d09d72d40fdae2fd8ceac6b6234c7706214fd39c1cd1e609a0528c199300a2646970667358221220cfd04f5d4f22747a7eca8a64c6db9683d19ae998e89d8a7dfbea3e37a548b70064736f6c63430008180033",
    "linkReferences": {},
    "deployedLinkReferences": {}
}